:0400000007EF00F016
:10000800158209ED00F078EF00F00600FACF01F054
:10001800FBCF02F0E9CF03F0EACF04F0E1CF05F01F
:10002800E2CF06F0D9CF07F0DACF08F0F3CF09F026
:10003800F4CF0AF0F6CF0BF0F7CF0CF0F8CF0DF0B5
:10004800F5CF0EF015C00FF016C010F017C011F064
:1000580018C012F0F2A403D0F2948DEC00F012C094
:1000680018F011C017F010C016F00FC015F00EC030
:10007800F5FF0DC0F8FF0CC0F7FF0BC0F6FF0AC074
:10008800F4FF09C0F3FF08C0DAFF07C0D9FF06C0B4
:10009800E2FF05C0E1FF04C0EAFF03C0E9FF02C0B8
:1000A800FBFF01C0FAFF15921100000EF26E070E59
:1000B800B46E060EC16E849E000EBD6E9596938832
:1000C80086EC00F07FEC00F0F28E080E831A14BE66
:1000D800FED7E80E135C030E1458D8A0F8D7000E0C
:1000E800146E000E136EF1D7146A136A15901592E8
:1000F800000159EF00F0F294000ED76E060ED66E8E
:10010800F28A1200D59AD596D550F80B0409D56E07
:100118001200000ED76E060ED66E134A142A12006D
:020000040020DA
:08000000FFFFFFFFFFFFFFFF00
:020000040030CA
:0E000000004C1F1EFF8381FF0FC00FE00F405A
:00000001FF
